:020000040800F2
:10000000805C04208D8E0008C1DF0208798E000814
:10001000798E0008798E0008798E000800000000B3
:10002000000000000000000000000000998F0008A0
:10003000798E000800000000218F00081DAB010828
:1000400025910008259100082591000825910008B8
:1000500025910008259100082591000825910008A8
:100060002591000825910008259100082591000898
:100070002591000825910008259100082591000888
:100080002591000825910008259100082591000878
:100090002591000825910008259100082591000868
:1000A0002591000825910008259100082591000858
:1000B0002591000825910008259100082591000848
:1000C0002591000825910008259100082591000838
:1000D0002591000825910008259100082591000828
:1000E0002591000825910008259100082591000818
:1000F0002591000825910008259100082591000808
:1001000025910008259100082591000825910008F7
:1001100025910008259100082591000825910008E7
:1001200025910008259100082591000825910008D7
:1001300025910008259100082591000825910008C7
:1001400025910008259100082591000825910008B7
:1001500025910008259100082591000825910008A7
:100160002591000825910008259100082591000897
:100170002591000825910008259100082591000887
:100180002591000825910008259100082591000877
:100190002591000825910008259100082591000867
:1001A0002591000825910008259100082591000857
:1001B0002591000825910008259100082591000847
:0801C0002591000825910008BB
:1001D00001F0FF01102A2BDB10F0070F08D010F8F8
:1001E000013B013A8B422DD010F0070F42B3F6D1FC
:1001F000F0B441EA012141EA014122F007047FF015
:1002000000070023F0E80256083C85EA010586EA6B
:10021000010685FA47F5A3FA87F586FA47F6A5FAA7
:1002200087F68EB9EED1F0BC01F0FF0102F00702B3
:1002300032B110F8013B013A83EA010313B1F8D15E
:100240000020704701387047002D06BF354603383F
:10025000073815F0010F07D1013015F4807F02BF78
:10026000013015F4C03F0130F0BC0138704700BFC9
:1002700080F0004002E000BF81F0004142001FBF5B
:100280005FEA410392EA030F7FEA226C7FEA236C64
:100290006AD04FEA1262D2EB1363C1BFD218414059
:1002A00048404140B8BF5B42192B88BF704710F0EF
:1002B000004F40F4000020F07F4018BF404211F092
:1002C000004F41F4000121F07F4118BF494292EAFA
:1002D000030F3FD0A2F1010241FA03FC10EB0C0026
:1002E000C3F1200301FA03F100F0004302D54942B3
:1002F00060EB4000B0F5000F13D3B0F1807F06D360
:1003000040084FEA310102F10102FE2A51D2B1F157
:10031000004F40EBC25008BF20F0010040EA03004C
:100320007047490040EB0000013A28BFB0F5000FCC
:10033000EDD2B0FA80FCACF1080CB2EB0C0200FA82
:100340000CF0AABF00EBC25052421843BCBFD040D1
:100350001843704792F0000F81F4000106BF80F44B
:1003600000000132013BB5E74FEA41037FEA226C0E
:1003700018BF7FEA236C21D092EA030F04D092F0D9
:10038000000F08BF0846704790EA010F1CBF00200D
:10039000704712F07F4F04D1400028BF40F000406A
:1003A000704712F100723CBF00F50000704700F08A
:1003B000004343F0FE4040F4000070477FEA2262B1
:1003C00016BF08467FEA23630146420206BF5FEA82
:1003D000412390EA010F40F4800070474FF0000382
:1003E00004E000BF10F0004348BF40425FEA000C49
:1003F00008BF704743F0964301464FF000001CE0F1
:1004000050EA010208BF70474FF000030AE000BF46
:1004100050EA010208BF704711F0004302D5404284
:1004200061EB41015FEA010C02BF844601460020F6
:1004300043F0B64308BFA3F18053A3F50003BCFA11
:100440008CF2083AA3EBC25310DB01FA02FC6344BE
:1004500000FA02FCC2F12002BCF1004F20FA02F2C5
:1004600043EB020008BF20F00100704702F12002B8
:1004700001FA02FCC2F1200250EA4C0021FA02F219
:1004800043EB020008BF20EADC7070474FF0FF0C1E
:100490001CEAD0521EBF1CEAD15392EA0C0F93EA19
:1004A0000C0F6FD01A4480EA010C400218BF5FEABB
:1004B00041211ED04FF0006343EA501043EA51112E
:1004C000A0FB01310CF00040B1F5000F3EBF490028
:1004D00041EAD3715B0040EA010062F17F02FD2A2C
:1004E0001DD8B3F1004F40EBC25008BF20F001000F
:1004F000704790F0000F0CF0004C08BF49024CEA26
:10050000502040EA51207F3AC2BFD2F1FF0340EAB7
:10051000C250704740F400004FF00003013A5DDC28
:1005200012F1190FDCBF00F000407047C2F1000269
:10053000410021FA02F1C2F1200200FA02FC5FEA56
:10054000310040F1000053EA4C0308BF20EADC70A0
:10055000704792F0000F00F0004C02BF400010F412
:10056000000F013AF9D040EA0C0093F0000F01F0BF
:10057000004C02BF490011F4000F013BF9D041EAE1
:100580000C018FE70CEAD15392EA0C0F18BF93EAE3
:100590000C0F0AD030F0004C18BF31F0004CD8D10D
:1005A00080EA010000F00040704790F0000F17BF94
:1005B00090F0004F084691F0000F91F0004F14D0DA
:1005C00092EA0C0F01D142020FD193EA0C0F03D132
:1005D0004B0218BF084608D180EA010000F0004035
:1005E00040F0FE4040F40000704740F0FE4040F410
:1005F000400070474FF0FF0C1CEAD0521EBF1CEAAF
:10060000D15392EA0C0F93EA0C0F69D0A2EB0302CC
:1006100080EA010C49024FEA402037D04FF0805366
:1006200043EA111143EA10130CF000408B4238BF2B
:100630005B0042F17D024FF4000C8B4224BF5B1A39
:1006400040EA0C00B3EB510F24BFA3EB510340EA87
:100650005C00B3EB910F24BFA3EB910340EA9C0035
:10066000B3EBD10F24BFA3EBD10340EADC001B01A5
:1006700018BF5FEA1C1CE0D1FD2A3FF650AF8B4249
:1006800040EBC25008BF20F0010070470CF0004C56
:100690004CEA50207F32C2BFD2F1FF0340EAC25081
:1006A000704740F400004FF00003013A37E792F042
:1006B000000F00F0004C02BF400010F4000F013AA0
:1006C000F9D040EA0C0093F0000F01F0004C02BF9B
:1006D000490011F4000F013BF9D041EA0C0195E704
:1006E0000CEAD15392EA0C0F08D142027FF47DAF9D
:1006F00093EA0C0F7FF470AF084676E793EA0C0F8D
:1007000004D14B023FF44CAF08466EE730F0004C8A
:1007100018BF31F0004CCAD130F000427FF45CAF1A
:1007200031F000437FF43CAF5FE700BF4FF0FF3C88
:1007300006E000BF4FF0010C02E000BF4FF0010CDB
:100740004DF804CD4FEA40024FEA41037FEA226CA4
:1007500018BF7FEA236C11D001B052EA530C18BFC6
:1007600090EA010F58BFB2EB030088BFC81738BF2B
:100770006FEAE17018BF40F0010070477FEA226C19
:1007800002D15FEA402C05D17FEA236CE4D15FEA15
:10079000412CE1D05DF8040B704700BF8446084649
:1007A0006146FFE70FB5FFF7C9FF002848BF10F10A
:1007B000000F0FBD4DF808EDFFF7F4FF0CBF01204F
:1007C00000205DF808FB00BF4DF808EDFFF7EAFFD9
:1007D00034BF012000205DF808FB00BF4DF808ED94
:1007E000FFF7E0FF94BF012000205DF808FB00BF89
:1007F0004DF808EDFFF7D2FF94BF012000205DF80F
:1008000008FB00BF4DF808EDFFF7C8FF34BF01201B
:1008100000205DF808FB00BF4FEA4002B2F1FE4F36
:100820000FD34FF09E03B3EB12620DD94FEA0023B2
:1008300043F0004310F0004F23FA02F018BF40428B
:1008400070474FF00000704712F1610F01D1420272
:1008500005D110F0004008BF6FF0004070474FF026
:10086000000070477BB972B90029BEBF00204FF06D
:10087000004106E008BF00281CBF6FF000414FF0A8
:10088000FF3000F057B8ADF1080C6DE904CE002937
:1008900009DB002B1ADB00F07CF8DDF804E0DDE971
:1008A000022304B07047404261EB4101002B1BDB87
:1008B00000F06FF8DDF804E0DDE9022304B0404207
:1008C00061EB4101524263EB43037047524263EBD9
:1008D000430300F05EF8DDF804E0DDE9022304B034
:1008E000404261EB41017047524263EB430300F029
:1008F00050F8DDF804E0DDE9022304B0524263EB76
:100900004303704753B94AB9002908BF00281CBFE8
:100910004FF0FF314FF0FF3000F00CB8ADF1080C94
:100920006DE904CE00F035F8DDF804E0DDE90223DE
:1009300004B07047704700BF10F8012B11F8013B5D
:10094000012A28BF9A42F7D0D01A7047034611F8FF
:10095000012B03F8012B002AF9D17047034613F845
:10096000012B002AFBD1181A01387047430803F005
:100970005533C01A00F03333800800F03330184488
:1009800000EB10104FF0013300F00F305843000E11
:1009900070472DE9F04786468C460846089E154666
:1009A00074461946002B40F0C2808542B2FA82F2AA
:1009B00045D94AB1C2F1200300FA02FC2EFA03F332
:1009C000954043EA0C0C94404FEA154EA8B2BCFB8C
:1009D000FEF8230C0EFB18CC08FB00F943EA0C438D
:1009E000994528D9EB1808F1FF3704D2994502D967
:1009F000A8F102072B44A3EB0903A4B2B3FBFEFC4E
:100A00000EFB1C330CFB00F044EA0344A04214D953
:100A10002C190CF1FF3304D2A04202D9ACF102032D
:100A20002C44241A43EA07401EB1D440002334600A
:100A30007360BDE8F0874746DDE76346F1E792BBA8
:100A4000431B01214FEA154EAFB2B3FBFEFC200C55
:100A50000EFB1C330CFB07F840EA0343984562D9B0
:100A6000EB180CF1FF3004D2984502D9ACF102002A
:100A70002B44A3EB0803A4B2B3FBFEFC0EFB1C3318
:100A80000CFB07F744EA0344A7424ED92C190CF19A
:100A9000FF3304D2A74202D9ACF102032C44E41B79
:100AA00043EA0040C0E7C2F1200320FA03F1954079
:100AB00090402EFA03F303434FEA154EAFB2B1FB59
:100AC000FEFC0EFB1C10190C0CFB07F841EA004160
:100AD000884504FA02F422D969180CF1FF3004D2D7
:100AE000884502D9ACF102002944A1EB08019BB270
:100AF000B1FBFEFC0EFB1C110CFB07F743EA0143A4
:100B00009F420ED9EB180CF1FF3104D29F4202D95B
:100B1000ACF102012B44DB1B41EA004192E7604645
:100B2000E3E76146F7E76046A3E76346B7E783423A
:100B300006D916B9002108467BE7C6E900E0F9E7C7
:100B4000B3FA83F78FB9834201D3724508D8BEEB5D
:100B5000020460EB030301209C461EB9002168E7F4
:100B60003846FAE7C6E9004CF8E7C7F1200CBB406D
:100B700022FA0CF41C432EFA0CF120FA0CF3B840C4
:100B800001434FEA14490EFA07F5B3FBF9F81FFACF
:100B900084FE09FB18300B0C08FB0EFA43EA0043F5
:100BA0009A4502FA07F240D9E31808F1FF3004D25F
:100BB0009A4502D9A8F102002344A3EB0A0389B2A3
:100BC000B3FBF9F809FB183308FB0EFE41EA0341B9
:100BD0008E452CD9611808F1FF3304D28E4502D915
:100BE000A8F10203214443EA0040A0FB0298A1EBD4
:100BF0000E014145CE46434602D306D14D4504D2AF
:100C0000B9EB020E68EB04030138002EA6D0B5EB59
:100C10000E0261EB030101FA0CFC22FA07F34CEA25
:100C20000303F940C6E9003198E74046C5E743466B
:100C3000D9E70000000000002DE9F047044688B025
:100C4000884617463CF0CDFC0A220023FFF75AFEE7
:100C5000B8F1010F06460D4607D102460B46204665
:100C600027492CF0F4F8002011E07F682548394628
:100C7000FFF762FE70B139462348FFF75DFE48B1C9
:100C800020463A4621492CF0FEF86FF0040008B0E7
:100C9000BDE8F0873046294617A3D3E90023FFF7C4
:100CA000E1FD06460D4610461946194A0023FFF796
:100CB000D9FD80460F46104619464EF660220023A5
:100CC000FFF7D0FD82468946104619464FF47A72E6
:100CD0000023FFF7C7FDCDE902A9CDE90623CDE941
:100CE000040132462B460B492046CDE900872CF003
:100CF000AEF8B8E7AFF30080005C26050000000006
:100D0000D9290408EA290408ED290408F629040869
:100D100080EE36000E2A04081FB5444827F0F4F987
:100D2000434827F0F1F9434827F0EEF927F0B0F9EE
:100D30000146414827F0E8F9404827F0E5F93C48EA
:100D400027F0E2F94FF480713D4827F0DDF92021CA
:100D50003C4827F0D9F94FF400513B4827F0D4F92B
:100D60004FF43041394827F0CFF9394827F0CCF912
:100D7000384827F0C9F927F055FA044630B1014642
:100D8000354827F0C1F9204604B010BD334827F09C
:100D9000BBF927F08FF9044610B101463048F0E75F
:100DA000304827F0B1F901F053FC2F4827F0ACF997
:100DB0003BF018FF102168463BF016FF90B96946DA
:100DC0002A4827F0A1F92A4827F09EF902F0B4F842
:100DD000284827F099F902F08FFF044630B1014608
:100DE0002548CEE7254827F08FF9ECE7244827F07F
:100DF0008BF9244827F088F927F05EFA044610B1F1
:100E000001462148BDE7214827F07EF9204827F018
:100E10007BF9204827F078F91F4827F075F9002161
:100E200042F210703CF018FBF9E700BF355504089A
:100E3000AC070408DE070408FE07040812080408CB
:100E40002F08040843080408570804087108040818
:100E50008B080408BE080408DA080408FD08040822
:100E60001D090408410904086F09040896090408CB
:100E7000D9090408FF0904081F0A0408AD09040879
:100E8000430A0408770A0408990A0408C30A0408F4
:100E9000F90A0408430B0408710B0408012973B50F
:100EA000064606D811492BF0EEFF6FF0150002B090
:100EB00070BD50683CF00BFE0DF106010546C0B256
:100EC00027F03AF9044638B130462A4608492BF053
:100ED000DAFF6FF00400EAE73046BDF806302A4634
:100EE00004492BF0B4FF2046E1E700BFA90B04083A
:100EF000C40B0408EA0B040873B505460DF106019E
:100F0000042027F019F9044638B1284612492BF07D
:100F1000BAFF6FF0040002B070BDBDF80660304645
:100F2000FFF75CFA0D49FFF7B1FA0D49FFF762FBD5
:100F30000C49FFF7A1F90C49FFF75CFB01460B4890
:100F4000FFF79AF9FFF768FC33460246084928463E
:100F50002BF07DFF2046DEE7FE0B040833335340C1
:100F600000F07F456ABC343F2D93E13A0000D84140
:100F7000280C0408012908B505D805492BF083FF82
:100F80006FF0150008BD03492BF061FF0020F9E761
:100F9000450C04085E0C0408012908B505D805496C
:100FA0002BF071FF6FF0150008BD03492BF04FFFC8
:100FB0000020F9E7840C0408A40C0408024908B5D1
:100FC0002BF045FF002008BDD60C0408024908B5E7
:100FD0002BF03DFF002008BD020D0408024908B5B2
:100FE0002BF035FF002008BD300D040810B5044675
:100FF00027F04EF80649024620462BF028FF2046EF
:10100000044B054A05492BF022FF002010BD00BF0C
:10101000760D0408880D0408910D04089D0D040840
:101020000129F7B5044640F2B3806F495068FFF7D5
:1010300083FC002840F0AC806C4A082120466C4DAF
:101040002BF0EAFE6B4B6C4A082120460093019579
:101050006A4B2BF0E1FE6A4E27F01AF8694B664A9C
:101060000821694FCDE9000520462BF0D5FE674BDE
:10107000614A0821204600930195654B2BF0CCFE78
:101080002AF029FA634B644A0821CDE9000520467D
:101090002BF0C2FE7D23604A082120460093019573
:1010A0005E4B2BF0B9FE5E4A082120462BF0B4FEC1
:1010B0004E4A082120462BF0AFFE5A4B5A4A0821CF
:1010C0002046009601952BF0A7FE584B564A082162
:1010D0002046CDE900652BF09FFE554B524A082172
:1010E0002046CDE900652BF097FE0423514A0821E4
:1010F0002046009301974FF480564F4B2BF08CFE07
:101100004E4A082120462BF087FE2A460821204619
:101110002BF082FE4A4A082120462BF07DFE334AFE
:10112000082120462BF078FE4FF40053414A082155
:10113000204600930195434B2BF06EFE424B3D4AF7
:1011400008212046019500962BF066FE3F4B394A58
:1011500008212046CDE900652BF05EFE3C4B354A68
:1011600008212046CDE900672BF056FE334A0821BE
:1011700020462BF051FE314A082120462BF04CFE30
:10118000344A082120462BF047FE002003B0F0BD72
:10119000204631492BF05BFE164A304920462BF0A1
:1011A00056FE26F075FF2E49024620462BF04FFED4
:1011B000164A2C4920462BF04AFE2AF08CF92A497F
:1011C000024620462BF043FE20467D2227492BF085
:1011D0003EFE4FF480534FF4005225492046CDE99E
:1011E00000332BF034FED0E7AB0D0408B20D040839
:1011F000E9590408C60D0408BA0D0408B40D040822
:10120000380E0408D70D0408A3540408F30D04088D
:10121000E40D0408F90D0408030E04080D0E04087B
:101220001A0E04082A0E04082E0E04083D0E0408A7
:10123000410E0408550E04084B0E0408BB51040867
:101240005F0E0408690E0408730E04087F0E04087C
:10125000880E040835550408910E0408A60E0408EB
:10126000BC0E0408D20E0408E80E0408010F04089E
:101270001B0F0408F7B50F46044616462AF02BF953
:10128000012F05461FD913497068FFF755FBD0B9E8
:10129000114A082120462BF0BFFD104B104A0821AF
:1012A0002046CDE900530F4B2BF0B6FD0E4A082126
:1012B00020462BF0B1FD0D4A082120462BF0ACFD55
:1012C000002003B0F0BD2A46094920462BF0BFFD9F
:1012D000F6E700BFAB0D0408B20D0408A3540408E0
:1012E000030E0408510F0408BB51040835550408C7
:1012F000570F04082DE9F041044692B027F074F826
:101300001949024620462BF0A2FD00251749204628
:10131000174E2BF09CFD174F2046DFF85C801749D5
:101320002BF095FD05A9284627F036F8A8B99DF8B9
:10133000241006980529BDF814209DF8173094BF95
:1013400058F821103946DDE90ACECDE902E1CDE9B0
:10135000000C314620462BF07AFD0135082DE1D1F5
:10136000002012B0BDE8F0816D0F0408850F04085D
:10137000EC0F0408650F0408F8ED0308B80F040823
:101380002DE9F041164BC8B0064600276D4603AC68
:10139000DFF8508093E807000C3385E8070093E8F6
:1013A000070084E8070006A955F8040B09F036F891
:1013B00080B99DF818306BB9479B304622680A49BE
:1013C0002BF045FD01370434032FECD1002048B049
:1013D000BDE8F0812268414630462BF038FDF1E748
:1013E000D0EA03082D1004081210040800B5C3B099
:1013F0000848694609F012F840B99DF80030012B01
:1014000018BF6FF0130043B05DF804FB014808F00B
:1014100011FFF8E73F1004082DE9FF412D4D074665
:101420002B7843B92C492BF02EFD6FF01504204684
:1014300004B0BDE8F081D5E901329A4203D02749D2
:101440002BF021FDF1E7FFF7D1FF044650B110F179
:10145000110F07D00246224938462BF014FD002315
:101460002B70E4E7DFF87C800026522201A8414679
:101470008DF80C60CDE9016608F0D2FD041E07DA94
:101480002246194938462BF0FEFC08F80C6CCEE7D2
:10149000AA6808F1200101A808F090FE044601A8FE
:1014A00008F050FE002C02DBAB68A34209D02246B4
:1014B0000E4938466FF004042BF0E5FC00232B7036
:1014C000B5E742460A49384634462BF0C0FC08F8D6
:1014D0000C6CACE718E201204A10040869100408FB
:1014E0008910040824E20120B0100408D610040872
:1014F000FD10040801292DE9F347074607D82949BB
:101500002BF0C1FC6FF0150002B0BDE8F087264E4D
:1015100033780BB92549F3E7D2F80480D6E90134D2
:101520004046A3EB04092C34FFF718FA10F0010A27
:10153000344402D01E493846E2E7B9EB500F4FEA77
:101540005005F7D304EB05094C4508F1020810D10A
:10155000002DEFD0B368EA1873689A42B2601AD9C6
:10156000384614492BF08FFC00236FF08A0033704B
:10157000CAE718F8023C1022002101A88DF80430B7
:1015800018F8013C8DF806A08DF8053029F0F8FA1E
:1015900004F8010BD8E7384607492BF058FC002027
:1015A000B2E700BF2911040818E201204E11040817
:1015B0008A110408A4110408C411040810B50446D3
:1015C00001F08AF9024920462BF041FC002010BDB1
:1015D000E511040838B5054601F006F9044630B1B6
:1015E0000246054928462BF04EFC204638BD0349EB
:1015F00028462BF02CFCF8E7001204081B12040804
:10160000022970B5064609D85F492BF03CFC5F49BA
:1016100030462BF01CFC6FF0150070BDD2E9015470
:101620005B492846FFF788F940B9204601F08EF95A
:10163000304658492BF00BFC0020EEE7564928466F
:10164000FFF77AF980B955492046FFF775F948B197
:1016500053492046FFF770F9B0FA80F0400901F0D5
:1016600083F9E5E70120FAE74E492846FFF764F9D8
:1016700018B9204601F084F9DAE74B492846FFF70C
:101680005BF930B920463CF022FA80B201F086F9CD
:10169000CEE746492846FFF74FF918B9204601F032
:1016A00089F9C5E742492846FFF746F930B920468F
:1016B0003CF00DFA80B201F08BF9B9E73D492846BC
:1016C000FFF73AF9A8B935492046FFF735F970B167
:1016D00033492046FFF730F948B137492046FFF734
:1016E0002BF9B0FA80F0400901F07EF9A0E7012063
:1016F000FAE732492846FFF71FF918B9204601F0EA
:101700007FF995E72E492846FFF716F918B92046C4
:1017100001F084F98CE72B492846FFF70DF930B921
:1017200020463CF0D4F980B201F086F980E72649E2
:101730002846FFF701F9A8B918492046FFF7FCF839
:1017400070B117492046FFF7F7F848B11A4920460B
:10175000FFF7F2F8B0FA80F0400901F079F967E795
:101760000120FAE719492846FFF7E6F830B9204684
:101770003CF0ADF9C0B201F077F959E72A461449B7
:1017800030462BF080FB46E7331204085912040858
:101790009B2004081C130408A9200408380E040820
:1017A000FC470408B3200408BB200408DC2004081C
:1017B000ED200408CA200408695C0408FC20040821
:1017C0000F210408F51204083A21040852210408E4
:1017D00004130408F0B591B0044637496D462BF068
:1017E00036FB4021354F2846354E01F0A9F82A46F0
:1017F000344920462BF02BFB01F0B0F8324B334A32
:101800003349002818BF1A4620462BF020FB2846F3
:10181000402101F0AFF82A462E4920462BF017FB55
:1018200001F0B6F82C49024620462BF010FB284662
:10183000402101F0B9F82A46284920462BF007FB41
:1018400001F0C0F82649024620462BF000FB01F0CB
:10185000C5F8244900280CBF3A46324620462BF0F2
:10186000F6FA01F0E3F82049024620462BF0EFFAA1
:1018700001F0E8F81D4900280CBF3A4632462046E0
:101880002BF0E5FA2846402101F0B4F8184B9DF8FA
:10189000002020461749002A14BF2A461A462BF07A
:1018A000D6FA01F0DBF81449024620462BF0CFFAB5
:1018B000002011B0F0BD00BF6F13040865130408C9
:1018C000611304088413040850130408581304080F
:1018D00098130408AC130408C0130408D4130408B4
:1018E000E8130408FC13040810140408281404085E
:1018F0006813040842140408571404080329F7B5B0
:101900000446164606D02D492BF0BDFA6FF015009F
:1019100003B0F0BD002201A9706829F031F9019BE4
:1019200005461A7812B126492046EDE7B06801A9AC
:1019300029F026F9019B0646187808B9FF2E01D92F
:101940002049F1E7B5F5805FAFB204D226F058FB2D
:1019500050BB1D49E8E7B5F5005F07D2A7F58057F2
:101960004FF4805026F04CFBBFB2F1E7B5F5804F45
:1019700006D24FF40050A7F5005726F041FBF3E7DD
:10198000A7F580474FF4804026F03AFBBFB200280D
:10199000DFD0B7F5805F07D34FF480533A460B4949
:1019A00020462BF070FAB1E7C6552B46204632464A
:1019B00007492BF04CFA0020AAE700BF6C1404087A
:1019C00091140408A9140408C7140408E6140408B0
:1019D0001A15040801292DE9F04F8046A5B0894663
:1019E000154607D864492BF04EFA6FF0150025B064
:1019F000BDE8F08F576861493846FEF79DFF824683
:101A000060B926F0FDFA4FF480560446B4BB404658
:101A10005B492BF038FA6FF00B00E8E7594938467C
:101A2000FEF78AFF40B94FF480504FF4805626F0FD
:101A3000E7FA0446B246E9E753493846FEF77CFF29
:101A400038B94FF400504FF4005626F0D9FA044646
:101A5000F0E74E493846FEF76FFF48B94FF4804033
:101A60004FF4805626F0CCFA4FF4804A0446CDE776
:101A70003A46474940462BF006FAB6E7B9F1020F5D
:101A80000ED00022A868114629F07AF88642054651
:101A90006BD8024633463F4940462BF0F4F9A4E7A1
:101AA000002500233A463C4940462BF0D0F905F189
:101AB000300304EB050B02930AEB0503374A802140
:101AC00004A828F01FFEAE42074616D9A319D9462E
:101AD00001930BF11003039307F1100019F8013B78
:101AE000C7F180012E4A684428F00CFE039B07448E
:101AF000994502D0019B9945EED107F11003C7F13A
:101B00008001284A0DEB030028F0FCFDAE4207449B
:101B10001CD9A319D946244A01930BF1100303934E
:101B200019F8013B07F11000A3F1200168445F2977
:101B3000C7F1800128BF2E2328F0E4FD039B074452
:101B4000194A994502D0019B9945E9D104AA174940
:101B500040462BF07CF9029B9D4204D010350BF1DE
:101B6000100BAE42A8D8002041E703463A460A4986
:101B700040462BF06CF99AE7371504086B150408FA
:101B8000B61504086F150408BD470408731504084A
:101B90007A150408DA1504080B160408341604082C
:101BA0003C16040842160408DA360408B80E040885
:101BB00001292DE9F04F80469BB00D46144607D809
:101BC00049492BF060F96FF015001BB0BDE8F08FAC
:101BD000002205A9606828F0D3FF059B07461A7804
:101BE00012B142494046ECE7022D0CD005A9A0688D
:101BF00028F0C6FF059B06461B7813B9431EFF2B32
:101C000002D93B49EEE71026B7F5805FBCB206D299
:101C1000002026F0F5F905464FF4805318E0B7F59B
:101C2000005F08D24FF48050A4F5805426F0E8F904
:101C30000546A4B2F0E7B7F5804F0CD2A4F50054E6
:101C40004FF4005026F0DCF94FF400530546A4B2DF
:101C50004DB92849C6E74FF48040A4F5804426F0EA
:101C6000CFF90546E5E7A2199A4207D90093224623
:101C70003346214940462BF006F9A4E74FF000090E
:101C800033463A461D4940462BF0E1F807EB09037D
:101C90001B4A502106A828F035FD4E4582460AD839
:101CA00009F1100906AA174940462BF0D0F84E4515
:101CB000ECD8002089E72B19CB46029309F10F03DA
:101CC0000393029B06A8CAF150010F4A13F80B3088
:101CD000504428F017FD039B82449B45E0D00BF154
:101CE000010B5E45EDD1DBE74616040891140408AC
:101CF0006916040888160408A6160408E3160408E2
:101D000034160408B80E04083C1604082DE9F347FD
:101D100004460025284626F06DFB0746F8B9013534
:101D2000082DF7D1002002B0BDE8F08738463AF020
:101D30002BFF711E03462046A942D4BF52464A4695
:101D400001350821009242462BF066F8E9B28E4236
:101D5000ECD80B4A082120462BF05EF8E2E73AF077
:101D600010FF084A0646082120460025DFF818A083
:101D70002BF052F8DFF81490DFF81480E6E700BF8C
:101D80000317040811170408A3540408E9590408A8
:101D9000080E040870B5002405462646204626F0A5
:101DA00029FB10B101263AF0E4FE0134042CF5D1F0
:101DB0002EB9054928462BF066F8002070BD03496E
:101DC00028462BF044F8F8E73C170408511704089C
:101DD00001292DE9F8430546134606D819492BF089
:101DE00052F86FF01500BDE8F8830022002458680F
:101DF0001146A04628F0C4FE274606461FFA80F981
:101E0000204626F0F7FA40B149464FF001083AF073
:101E10008BFE37EA200728BF07460134042CEFD198
:101E2000B8F1000F05D1084928462BF02CF8002006
:101E3000D9E72FB9B2B2054928462BF008F8F6E7E2
:101E40000349F1E76A1704083C1704088A170408D5
:101E5000AC17040801292DE9F8430546134606D8B6
:101E60001E492BF010F86FF01500BDE8F883002232
:101E7000002458681146A04628F082FE26460746F0
:101E80001FFA80F9204626F0B5FA40B149464FF0D6
:101E900001083AF029FE36EA200628BF064601343A
:101EA000042CEFD1B8F1000F05D10D4928462AF0D6
:101EB000EAFF0020D9E72EB9BAB20A4928462AF02B
:101EC000C6FFF6E7084B2846084A094916F1020FF3
:101ED00008BF1A462AF0D7FFEBE700BFD81704085F
:101EE0003C170408F5170408BE170408C9170408AE
:101EF0001518040810B50B490446FEF71DFD68B11E
:101F000009492046FEF718FD50B108492046FEF762
:101F100013FD0028064818BF002010BD0548FCE747
:101F20000548FAE75E180408CA260408D8540408CD
:101F3000481804082018040832180408012970B54C
:101F4000054606D814492AF09EFF6FF01504204676
:101F500070BD54682046FFF7CDFF064628B92246DB
:101F60000E4928462AF08FFFEFE708F0ABF9831CF3
:101F7000044606D132460A49284600242AF067FF63
:101F8000E5E7002805DA0246064928462AF07BFFE5
:101F9000DDE732460449EFE76118040890180408A9
:101FA000AF180408D1180408F318040802292DE911
:101FB000F8430546164606D81D492AF064FF6FF01F
:101FC0001500BDE8F88354682046FFF793FF81466B
:101FD00028B92246174928462AF055FFEFE70A227A
:101FE0000021B06828F0CCFD431E0746B3F5805FA2
:101FF00003D34FF480521049EDE7DFF8408001230E
:1020000000241F224946C8F8040008F10C0088F893
:102010000030C8F808403BF0B6FD284688F82B4051
:102020003B46726806492AF012FF2046C9E700BF06
:102030000E190408901804084419040818E2012035
:1020400061190408012930B5044687B045D93749DC
:102050005068FEF771FC00283FD102A826F076F9FF
:10206000334A082120462AF0D7FE26F069F90528D0
:1020700054D9304B304D0821304A2046CDE9003547
:102080002F4B2AF0C9FE049B2E4A082120460093BC
:1020900001952D4B2AF0C0FE029B2A4A08212046BA
:1020A00000930195294B2AF0B7FE294B294A0821B4
:1020B000019320469DF814300093274B2AF0ACFE84
:1020C000264A082120462AF0A7FE254A0821204654
:1020D0002AF0A2FE002007B030BD02A826F036F993
:1020E000204920462AF0B3FE26F02AF9052819D9FE
:1020F000104A20461C492AF0AAFE049A20461B4991
:102100002AF0A5FE029A204619492AF0A0FE9DF861
:102110001420184920462AF09AFEDBE7164B53F8A4
:102120002030A7E7144B53F82020E2E7AB0D04085A
:10213000B20D0408650F0408E9590408BA0D040833
:10214000251E0408030E0408F90D0408A919040843
:10215000A3540408550E0408B0190408BB51040820
:10216000355504088E190408BD190408CB19040854
:10217000DC190408EA190408F8ED0308012930B550
:10218000044687B062D948495068FEF7D5FB00285D
:102190005CD102A826F0DAF8444A082120462AF049
:1021A0003BFE26F0CDF8052876D9414B414D08215C
:1021B000414A2046CDE90035404B2AF02DFE049BD4
:1021C0003F4A08212046009301953E4B2AF024FE09
:1021D000364A082120462AF01FFE3B4A08212046A5
:1021E0002AF01AFE314A082120462AF015FE029BE9
:1021F000334A0821204600930195344B2AF00CFE07
:10220000039B2F4A0821204600930195304B2AF06A
:1022100003FE304B2A4A0821019320469DF81430D2
:1022200000932D4B2AF0F8FD2C4A082120462AF075
:10223000F3FD2A4A082120462AF0EEFD284A08210B
:1022400020462AF0E9FD002007B030BD02A826F0A4
:102250007DF8244920462AF0FAFD26F071F8052879
:102260001ED9134A204620492AF0F1FD049A20463F
:102270001E492AF0ECFD9DF8142020461C492AF046
:10228000E6FD029A20461B492AF0E1FD039A1A490D
:1022900020462AF0DCFDD6E7184B53F8203085E7BE
:1022A000164B53F82020DDE7AB0D0408B20D0408EF
:1022B000650F0408E9590408BA0D0408251E04082E
:1022C000030E0408F90D04080B1A0408A9190408E0
:1022D000141A0408A3540408B0190408BB510408D4
:1022E00035550408F81904081D1A04082F1A0408A3
:1022F000441A04085D1A04086F1A0408F8ED03086C
:102300000129F0B5044691B00F46164606D8464955
:102310002AF0B9FD6FF0150011B0F0BD50683BF028
:10232000D6FB022F05460FD04049B068FEF704FBEC
:1023300050B903A9284626F02FF860B32A463C4935
:1023400020462AF0A0FDE5E703A9284626F024F858
:102350000028F3D12A46204636492AF078FD9DF818
:102360001C3020463449052B96BF344A344A52F873
:1023700023202AF06CFD049A204632492AF067FD9A
:10238000089A204630492AF062FD099A2F492046D2
:102390002AF05DFD45E02E4A082120462D4D2AF009
:1023A0003BFDBDF80C302C4A0821204600930195D6
:1023B0002A4B2AF031FD9DF81C3008212046052BC0
:1023C00096BF1E4A1E4B52F82330254ACDE90035F0
:1023D000244B2AF021FD089B234A08212046009324
:1023E0000195224B2AF018FD099B1F4A082120461F
:1023F000009301951E4B2AF00FFD1E4B1A4A08212F
:1024000001932046049B00931B4B2AF005FD1B4AB9
:10241000082120462AF000FD194A082120462AF00A
:10242000FBFC002078E700BF811A0408AB0D04080C
:10243000A01A0408C31A0408D21A0408F8ED030805
:10244000650F0408E21A0408F51A0408051B0408BD
:10245000B20D0408E9590408550E0408C220040806
:10246000BA0D0408251E0408030E0408A91904085F
:10247000141A0408A3540408BA1A0408BB51040827
:1024800035550408F7B51446594901AA06461D46B4
:102490002AF06AF960B1019F57B9564E1F222846AB
:1024A0003146A047002800DB3754002003B0F0BDC0
:1024B00001AA514930462AF057F940B1019B33B97E
:1024C00001224E492846A04700EAE070EEE701AA43
:1024D0004B4930462AF048F960B1019F57B90F22A5
:1024E00048492846A0470028A2BF424B1B1883F842
:1024F0002170DAE701AA444930462AF035F920B1C3
:10250000019B13B902224149DCE701AA4049304648
:102510002AF02AF960B1019F57B93F223D49284668
:10252000A0470028C1DB334B034483F83570BCE778
:1025300001AA394930462AF017F920B1019B13B995
:1025400001223649BEE701AA354930462AF00CF986
:1025500020B1019B13B902223249B3E701AA3249E3
:1025600030462AF001F960B1019F57B93F222F4947
:102570002846A047002898DB1E4B034483F8787058
:1025800093E701AA2A4930462AF0EEF860B1019F8C
:1025900057B93F2227492846A047002885DB154B1D
:1025A000034483F8B87080E701AA234930462AF033
:1025B000DBF820B1019B13B90222204982E701AA6E
:1025C0001F4930462AF0D0F820B1019B13B90122EF
:1025D0001C4977E701AA1C4930462AF0C5F820B10A
:1025E000019B13B9012219496CE76FF001005DE707
:1025F0009B200408145D0220A9200408345D0220F9
:10260000B3200408355D0220BB200408465D02208B
:10261000DC200408495D0220CA200408485D02202D
:10262000ED2004088A5D0220FC2004088C5D022055
:102630000F210408CC5D0220222104080C5E022038
:102640003A2104080E5E0220522104080F5E022087
:10265000F0B5544CC3B0012520225349204600AFA9
:102660003BF091FA1022514904F1210084F82050E6
:102670003BF089FA40224E4904F13500658684F822
:1026800034503BF080FA40F25B734A48A4F8FA50A9
:10269000A4F876300023484D84F8783084F8B830B8
:1026A0003C23A4F8F83007F0FFFE031E2FDA2A6857
:1026B00012F0060F04D0414A0221284629F077FF84
:1026C000002301211A46084607F0B8FF0346D0B19F
:1026D0002A68510704D03A4A0121374829F067FF98
:1026E00003F010FA0446002845D02B685A0705D09D
:1026F000344A03460121304829F059FF204607F5A6
:102700008677BD46F0BD2B4807F0CEFE03462A680B
:1027100002F007021BB1002AE2D02B4ADCE7022AB2
:1027200004D92A4A0321244829F038FF284C394685
:10273000204607F073FE03460028D1D13A78012ADB
:10274000CED12A6812F0060F11D06E4688B06A46C4
:102750002049C2E905144FF4007191831E4942F8E3
:10276000101F4FF4E451144802F03EFDB5461848DE
:1027700007F0A8FDB4E719482AF01AF8044628B172
:102780002B685B07BAD0164A0346B3E729F0E9FF86
:1027900003460028B2D02A6812F0060FAED0114AC4
:1027A0000221A8E7145D0220F61E0408021F040897
:1027B0000A1F0408CC080120181701201D1F040857
:1027C0005B1F040821200408791F0408C31F0408A4
:1027D000DC1F0408EA1F040803000001B008012000
:1027E000462004086820040838B52E4C204604F121
:1027F0002105FEF7B3F8214602462B4802F0D8FF28
:1028000004F120010122294802F0D2FF2846FEF7F8
:10281000A5F829460246264802F0CAFF04F135050C
:1028200004F132010222234802F0C2FF04F1340114
:102830000122214802F0BCFF2846FEF78FF8294606
:10284000024604F178051D4802F0B2FF04F176015A
:1028500002221B4802F0ACFF2846FEF77FF829460B
:1028600004F1B8050246174802F0A2FF2846FEF719
:1028700075F829460246144802F09AFF04F1F8015F
:102880000222124802F094FF04F1FA0101221048DA
:1028900002F08EFF012204F1FB010E4802F088FFD6
:1028A000002038BD145D022096200408A4200408EE
:1028B000AE200408B6200408C5200408D720040868
:1028C000E8200408F72004080A2104081D21040850
:1028D000352104084D21040838B5154C0125202266
:1028E000144920463BF04FF91022134904F121000E
:1028F00084F820503BF047F904F1350040220F499D
:10290000658684F834503BF03EF940F25B73A4F8DE
:10291000FA50A4F87630002384F8783084F8B83080
:102920003C23A4F8F830BDE83840FFF75DBF00BF96
:10293000145D0220F61E0408021F04080A1F040882
:102940000A4601493BF01FB9145D022001461F22CF
:1029500001483BF018B900BF145D0220014B93F809
:1029600020007047145D0220014B83F8200070475F
:10297000145D02200A4601493BF005B9355D02208D
:1029800001460F2201483BF0FEB800BF355D022032
:10299000014B588E704700BF145D0220014B5886D2
:1029A000704700BF145D02200A4601493BF0EBB8B6
:1029B000495D022001463F2201483BF0E4B800BFD8
:1029C000495D0220014BB3F876007047145D022088
:1029D000014BA3F876007047145D0220014B93F879
:1029E00034007047145D0220014B83F834007047B7
:1029F000145D02200A4601493BF0C5B88C5D0220F7
:102A000001463F2201483BF0BEB800BF8C5D02206A
:102A10000A4601493BF0B7B8CC5D022001463F228F
:102A200001483BF0B0B800BFCC5D0220014BB3F8C9
:102A3000F8007047145D0220014BA3F8F8007047BE
:102A4000145D0220014B93F8FA007047145D0220D8
:102A5000014B83F8FA007047145D0220014B93F894
:102A6000FB007047145D0220014B83F8FB007047A8
:102A7000145D02202DE9F74F1F464FF000099DF825
:102A80003030064688461546019325F0D5FAC145F3
:102A90001FFA89F403D125F0DBFA002008E0301991
:102AA00080B228F020FD30B925F0D2FA4FF0FF3087
:102AB00003B0BDE8F08F002F38D0019B83B3C4F37F
:102AC000C70409F007032C5D1C4104F00104B0F8B1
:102AD00000B090F802A02BF4FF5020F01F00B0F5DA
:102AE000005F1CBF2BF47F6020F00F0025F088FAF8
:102AF00028B3BAF1120F22D84FF0010C154ACBF3CC
:102B00000B030CFA0AF111421CD1134A0A40AAB96C
:102B1000124A0A409AB1C4541844240A44700EE080
:102B20002C78A4F1FF035C425C41D0E7691C15F8E6
:102B3000193011F8194044EA0324C8E7C45409F1D4
:102B40000109A4E7C4541844240A00234470837084
:102B5000C370F4E7C00404000E000100300002005E
:102B60002DE9F04FADF5117D01210622BB4F08463E
:102B700008F0D4FAB0F1000A0FDA3B685E0725D0FE
:102B8000B74B3BF0B9F91B58B64A012138460DF551
:102B9000117DBDE8F04F29F00ABDB34D0023CDE90A
:102BA0000A5308220AA908F015FB002812DA3B682C
:102BB0005C0708D0AA4B3BF09FF91B58AB4A012198
:102BC000384629F0F4FC50462BF066FF0DF5117DD8
:102BD000BDE8F08F0321504608F054FB00283B6805
:102BE00007DA5807EFD09E4B3BF086F91B58A04AF6
:102BF000E5E703F00703022B06D94FF4FB739D4A68
:102C00000321384629F0D3FC0823099309AA0CA90B
:102C1000504608F061FB031E03933B6811DA13F082
:102C2000060F08D08E4B3BF067F91B58924A0221E1
:102C30008A4829F0BCFC00214FF47A703AF00CFC71
:102C4000E2E703F00703022B04D98C4A03218348EF
:102C500029F0A4FC0EAE00234FF482723146039893
:102C6000CDE9003308F0C6FB041E40F35281072C67
:102C7000F1DD738896F80680F579002BEBD1FFF72C
:102C800087FE404506D008F1FF385FFA88F8B8F1B2
:102C9000FD0FE0D905F1FF398DF8435196E80300A7
:102CA0005FFA89F9ADF84011090CB9F1030F4F90A3
:102CB0008DF8421100F2EA800B2CCCDD7489338947
:102CC0003CB164BAB9F1010FA4B206D8B4F5FA6FF9
:102CD00005D945F08005032320E07D2CF8E75BBA99
:102CE000FA2200210DF245109BB204933AF0E7FE60
:102CF00025F0A2F94FA90022049B1FFA82F8069141
:102D000013FA82F0059280B228F0EDFBDDE905218F
:102D1000A8B925F09DF945F08005022309228DF818
:102D200043518DF84431931F5BBAADF84031002315
:102D30004FA90398CDE9003308F0FAFA8BE7B0F811
:102D400000B083782BF4FF50059220F01F00B0F5FF
:102D5000005F1CBF2BF47F6020F00F00CDE906134D
:102D600025F04EF9079BDDE9052190B9B9F1010F76
:102D70006ED8C8F3C70802F007000DF2451C012306
:102D800003FA00F01CF8083023EA00030CF80830BE
:102D90003AE0122BEAD84FF0010CCBF30B0B0CFAF4
:102DA00003F3DFF8DCC013EA0C0F40D1DFF8D4C026
:102DB00003EA0C0CBCF1000F0FD1DFF8CCC003EA22
:102DC0000C0CBCF1000FD1D000EB0B0393F801C049
:102DD00010F80B3043EA0C2301E010F80B30B9F186
:102DE000010F36D802F007004FF0010CC8F3C708F6
:102DF0000DF2451E0CFA00FC002BBED01EF8083068
:102E000043EA0C030EF808300132023193B29C42BF
:102E10003FF672AF25F01CF9B9F1010F96BF0734E8
:102E20006400E41004F109028DF844417BE700EBF3
:102E30000B0C10F80B009CF802309CF801E01B040E
:102E400043EA0E2303439CF8030043EA0063C6E70A
:102E50000023180A8B724872D6E700BF1C170120A6
:102E60000C0000006C210408010001F68F21040809
:102E7000B0210408D6210408FB2104081322040809
:102E8000C00404000E000100300002006B1F012B83
:102E900016D80B2C7FF7DFAE691F002330890DF1A8
:102EA000420200934B4240BA4B41012180B2FFF7EE
:102EB000E1FD0028FFF62FAFB3680C22519332E7F3
:102EC000A5F10F03012B20D80C2C7FF7C4AE337B68
:102ED00030890C3371899C427FF7BDAE00293FF4E5
:102EE000F8AE49BA0F2D89B20DD1B1F5F66F3FF6A4
:102EF000F0AEA5F10F02012340BA009353425341B3
:102F00000DF14502D2E77B29F1E745F08005012369
:102F100004E73B6803F00703022B04D9044A0321AA
:102F2000044829F03BFB03982BF0B6FD6CE600BF8C
:102F30002B2204081C17012030B589B00022002381
:102F400000240C4D0C4928460094CDE906236FF06F
:102F500008034FF40062CDE90334CDE90144074B87
:102F600026F016FA0649284626F034F9204609B01C
:102F700030BD00BF981B012040E20320612B0008F8
:102F8000462204082DE9F04F0E69D3B0454F0D4697
:102F90007F2E394628BF7F26324633F0B8FC002802
:102FA00060DB00240DF128080DF10809DFF8F8A016
:102FB000BC5540466E6829688F2EDFF8F0B028BFF8
:102FC0008F2632463AF053FD08F8064025F088F87F
:102FD0000646A0B2864245D925F088F80546002865
:102FE0005ED0C378032B5BD1078820214846FFF7CA
:102FF000A7FC53465A4690212EA8CDE9009727F00A
:1030000081FB00284CDB2EA94046FDF795FC0746C6
:10301000002845D12E8806F47040C6F30B06B0F5A3
:10302000405F08BF4FF4005024F0EAFF0446C8B1E7
:1030300025F002F8AD780A2D25D00FD8012D14D037
:10304000043D012D0CD80A220021164827F022FD4C
:10305000A0553444C0F30720607001E0112DF2D078
:1030600024F0F6FF53B0BDE8F08F11490D48FDF78D
:1030700063FC30B10F490B483AF03DFDB0FA80F5E2
:103080006D09A555ECE73946064827F067FBA055C2
:10309000030A34446370030C000EA370E070DFE792
:1030A000013496E7D38802205D22040862220408D6
:1030B000FC470408380E040870B5002696B0044694
:1030C0000846154601918DF80C60FDF747FC0C4B46
:1030D0000290CDE9043528F01CFA9DF81A303C2204
:1030E000314623F00303ADF8180007A88DF81A3015
:1030F0003AF0E5FC01A9204633F0AFFA16B070BDF6
:10310000548902202DE9F04FADB080460C7802AF13
:10311000032C00F29580DFE814F00400850196018D
:103120009A01A84DCB6E2A6802F0070243B1002A2B
:1031300000F08680A44A0121284628F0F2F97FE0B9
:103140000123A249022A0B7004D9A14A032128466F
:1031500029F024FA202107F10800FFF7F1FB07F11D
:1031600008039C4A8021009307F128009A4B27F01E
:10317000C9FA002856DBDFF864924FF4814200213F
:10318000002648463AF09BFC28F0C3F9944B0022F5
:103190001E600023C9E900019249C1E9002324F01F
:1031A0009FFF7860B0B27B6898420FD2202C0DD080
:1031B00024F09CFF824600286BD0C378012B3B6033
:1031C00042D001367B68B0B28342F1D8834E4FF4CF
:1031D0008062854907F10800348124F03FFC3246C3
:1031E000824907F1080039F05FFC034600285BD1F3
:1031F0002A6850071ED0B9696C467D4A88B00029FC
:1032000008BF114602AA7B48C2E905014FF40071CC
:103210009183794942F8101F4FF4E251694801F057
:10322000E3FFA5462B68590704D0744A012165487D
:1032300029F0B4F90023654A4046137033F0D0FA00
:10324000AC37BD46BDE8F08F4FEA442BBAF80030EA
:103250006B4A20210BF11000484427F053FA09EB88
:103260000B01D9E90023C1E90E233B6881F8463000
:103270009AF802300A2B13D00DD8012B12D0043B40
:10328000012B8CBF002305230134CB44E4B2CBF8DF
:103290004030013686E7112B0CBF05230023F3E7EE
:1032A0000923F1E70B23EFE72B6803F00703022B59
:1032B00017D96E468AB07B6902AA524914625161DD
:1032C00007F12801C2E906134FF4007393844E4BB3
:1032D00042F8103F00234FF433513A4801F084FF85
:1032E000B5467A6907F128014046FFF7E5FE044636
:1032F000002897D124F0F4FE26468146A0B28145ED
:1033000041D9202E1CD11422002107F130003AF0BF
:10331000D6FB3E4B07F128014046BB624FF40073D9
:10332000BE85FB8533F00BFA2B68002840D103F0F3
:103330000703022B84D93346354A03212148FCE692
:10334000013424F0D3FED8B1C378032B18D14FF049
:10335000900B304B20210BFB063A038807F1280025
:103360007B60FFF7EDFA7B6859462B4A5046019384
:1033700007F128030093294B27F0C4F9002806DA47
:10338000A0B24845DCD3002E3FF45AAFBBE70C2374
:103390001E4A50467343013602EB030B42F803A06A
:1033A000FDF7DCFA0023CBF804008BF80830A5E722
:1033B00013F0060F3FF444AF194A0221014829F0E7
:1033C000EDF83DE7201701207E22040853890220F2
:1033D00096220408BB220408B4220408F05C0120F1
:1033E000E4F20120009D012054890220DCF1030851
:1033F00068130408CE220408030000011A230408FD
:1034000075220408EA22040805000001E8F2012000
:1034100048230408125E0220622204085D22040888
:103420006C2304081048036803F00703022B04D937
:10343000CB6E03210D4A28F074F800230C4A137058
:103440000C4A1360FCE60431FFF79CFDF8E6CB6EF6
:10345000002B3FF4F5AE0448026852073FF4F0AE8B
:10346000054A012169E600BF2017012083230408D3
:103470005389022084F40120992304082DE9F04F98
:10348000B9B00226C24C4CF25030002102AF28F0F5
:1034900068F8FFF7A3FA28B942F21070002128F06B
:1034A00060F8F6E7BB4B00252046DFF8EC821D7084
:1034B00033F076F8402107F11800FFF775FAFFF7AF
:1034C00081FAB64A0346082107F1100027F01AF9DD
:1034D0002946542207F158003AF0F1FA012307F186
:1034E000580207F1100107F11800FD60AC4DC7E963
:1034F000183307F10C032BF040FA8246002840F005
:10350000B380FA68002A00F0AF80D16943460868AA
:10351000496803C310462BF0AAFA2B6803F007038F
:10352000022B14D9E94688B002AA9E4B536107F1D9
:10353000180393614FF4007393839B4B42F8103F41
:103540004FF4E6515346284601F04EFECD46202169
:1035500007F15800FFF7F4F9944BDFF85492C4F8E0
:10356000E83107F15803C4F8A0811846C4F898312F
:10357000FDF7F4F94021C4F89C018E48FFF714FAD6
:1035800040214846FFF736FA40218B48FFF740FAC2
:1035900099F80080B8F1000F08D0DFF82082484683
:1035A000C8F80090FDF7DAF9C8F804008248C4F8BA
:1035B000A481037843B1DFF80882C8F80000FDF762
:1035C000CDF94346C8F80400C4F8A8310523DFF854
:1035D000F4814FF0000B84F8FE31FFF733FA94F8D2
:1035E0002C3260F3410384F82C32FFF71FFA764B3C
:1035F000764AC4F8EC314FF48063A4F8FC01C4F8B7
:10360000F031C4E97D23FFF729FA88F800B081463C
:10361000002870D184F870012B6803F00703022B97
:1036200005D933466A4A03215D4827F07AFF2046D0
:1036300032F0CEFF0346002800F058812A68500778
:1036400005D0644A01215648009628F0BAFF4FF48D
:103650007A730A2173437600A3FB010127F081FFEF
:103660003C2E28BF3C2614E72B6813F0060F14D01D
:10367000E94688B002AA584B536107F118039361D9
:103680004FF400739383484B42F8103F00234FF4EC
:10369000E451434801F0A8FDCD464FF00109A8F8D8
:1036A0000090FFF78FF98246FFF78CF9030243EA97
:1036B0001A20A8F80200494A07F1180148462BF0E1
:1036C000EDF948453FF443AF2B6859073FF43FAF4E
:1036D000E94688B002AA424B536107F1180393618F
:1036E0004FF400739383304B42F8103F00234FF4A4
:1036F000E2512B4828E74FF0010A504584F870A1A9
:1037000004D1C4F87CB1C4E962BB85E7354B3649C6
:10371000184627F008FF0028324B19DC2A685207A8
:1037200013D0E8468AB002AA3049D061C2E9051335
:103730004FF4007313842E4B42F8103F4FF4115195
:103740005B46174801F050FDC5466FF0010B14E0D1
:10375000431C254A514682200AF08AFBB0F1000B37
:103760004CDA1BF1110F49D02B68580705D05B4686
:10377000204A01210A4827F0D4FE2B685D073FF458
:1037800066AF5B461C4A0121054827F0CAFE5EE78A
:10379000A8F401205389022090F40120924D0408DE
:1037A00020170120AF2304080300000105310008A1
:1037B00092700220127002205270022070F40120D8
:1037C00068F40120D270022054910220548D02200E
:1037D0001D25040848250408CC23040894F401207E
:1037E0000424040820180408D38002203C24040880
:1037F000040000015D240408FE24040898F8003049
:10380000B9F1030FDFF8B0A203F1010288F800203C
:103810004FF082024AF8232058D1A849A84827F03F
:1038200082FE8346A749A84827F07DFEBBF1000F22
:10383000814601DD002814DC2B68590785D0E84655
:103840008AB002AAA14B53619D4B93619E4BD361F9
:103850009F4B13629F4B42F8103F00234FF42151BE
:103860006FE70BF10103954A022183200AF000FB68
:10387000B0F1000B09DA1BF1110F06D02B685A07C3
:103880003FF47BAF5B46944A73E709F101038D4A2D
:10389000032184200AF0ECFAB0F1000B09DA1BF1E5
:1038A000110F06D02B685B073FF467AF5B468B4A6E
:1038B0005FE798F8003083224AF823209A1C0133EE
:1038C00088F800208422DBB24AF823200223C4F8BF
:1038D0008CA1C4F87C310023C4F8843198F80030FE
:1038E000C4F888317E4BC4F8903195E67D480121BB
:1038F000D4F87831818003607B4B196041F28832C3
:103900002AF0F1FD002802DD204632F0A3FF774BBC
:103910001B785BB9204632F063FF2B6813F0060F6B
:103920003FF495AE3346724A02212DE727F0F1FDB0
:1039300006466E4B1B78002B39D06B4B196800295B
:1039400008DD642267482AF0CEFD031E1EDD2046F6
:1039500032F080FF27F0DDFD831B7860B3F5FA6F4E
:10396000C0F0A58024F0BCFB4FF0000806461FFA0B
:1039700088F0B04280F09A8024F0B8FB834610B102
:10398000C378012B30D008F10108F0E703F11602EB
:10399000162A04D8574921FA02F2D107DAD42A6844
:1039A000520704D0544A0121544827F0BAFD2C2272
:1039B000002107F158003AF082F807F1580120463B
:1039C00032F091FE2B6803F00703022B05D9022386
:1039D0004B4A0321494827F0A4FD44F6206000210A
:1039E000042627F0BEFD54E5202107F11800FEF75C
:1039F000A7FF07F11803434A8021009307F15800FD
:103A0000414B26F07FFE002850DB24F015FBBBF86D
:103A1000009009F47046B6F5405F2AD14FF400508B
:103A20004FF4005624F0ECFA8246DFF8E0804FF4C1
:103A30008142002140463AF042F827F06AFD344ABC
:103A4000C8E900011368002032490B600133486067
:103A5000DBB21360BAF1000F60D124F0F9FA2B4BFE
:103A600093F84620002A40F0A480012283F84620E3
:103A70009FE0304624F0C4FAB6F5805F8246D4D089
:103A800003D846B94FF48056CFE7B6F5005FCCD0E7
:103A9000B6F5804FF6D02B685B0705D033461E4A3B
:103AA0000121164827F03DFD24F0D2FA7E68204619
:103AB00032F0ABFE3DE700BF78F40120D37802205E
:103AC00032180408D3700220481804087F24040820
:103AD0000002010304000002A9240408D4240408FD
:103AE0001270022088F4012084F4012053890220FE
:103AF00074250408010840009C25040820170120B3
:103B000083260408BB220408AB250408701C01208E
:103B1000E4F20120805C0120B12504084FF001038C
:103B2000684A202108F11000A8F80830C9F30B09F1
:103B3000BBF8003026F0E6FDD8E90023C8E90E23E3
:103B40009BF802300A2B76D014D8012B22D01A1FF2
:103B5000012A11D809F10203B34256D92B6858073C
:103B60003FF47BAF40F6FF73574A0121574827F0D7
:103B7000D8FC72E7112BEDD02A6812F0060F04D0A2
:103B8000534A0221514827F0CCFC524B012283F8C2
:103B900046200CE00B23C8F840300E23A8F8C831AB
:103BA0001AF80930003B18BF012388F8D03124F0FF
:103BB0004FFA4FF48062484907F1180023F04EFF96
:103BC000444A464907F1180038F06EFF03460028C2
:103BD00052D12A6852073FF469AFB96A6E46404A2B
:103BE00088B0002908BF114602AA3E48C2E9050173
:103BF0004FF4007191833C4942F8101F4FF4E25199
:103C0000324801F0F1FAB54650E70AEB0903052105
:103C10005A781AF8093043EA02232E4A11640A211D
:103C20001BB2A2F8C8119BF80210042918BF9BB25E
:103C3000C2F8D031BBE709F104039E4206D22B68DB
:103C400059073FF40AAF4B46284A8EE70AEB0902B0
:103C5000937851781B04D27843EA01231AF80910AB
:103C60000B43092143EA0263C8F840100C21C8F84D
:103C7000D031A8F8C8119AE77E6A002E7FF716AFF8
:103C80002B6803F00703022B15D9E8468AB002AA75
:103C9000174B536107F15803C2E906364FF400731E
:103CA0001384144B42F8103F00234FF4135107487C
:103CB00001F09AFAC546324607F158012046FFF74F
:103CC000FBF9F3E675220408D32504082017012028
:103CD00011260408701C012054890220DCF103081D
:103CE000681304084026040803000001F4250408B2
:103CF000612604080400000110B588B000220023EA
:103D00000024114911480094CDE906236FF0070300
:103D10004FF40052CDE90334CDE901440C4B25F0BA
:103D200037FB58B90B4803685B0703D00A4A0121E7
:103D300028F034FC6FF00B0008B010BD07490348B1
:103D400025F048FA2046F7E780EA0320709D01201D
:103D50007D34000820170120A8260408C526040881
:103D60002DE9F04F91B0840705460E46009302F00E
:103D70000403DDF868800293C2F3C203039203F1E7
:103D80000103059340F0BA81041D30B1072909D819
:103D90006FF01B0011B0BDE8F08F01F0070634444E
:103DA000C6F10806009B4FF000094FF0040A591EA7
:103DB0004FF0FF334F46CB4601935346CDF810905A
:103DC0000DB1009A22600598002800F3E880984819
:103DD000009A824203D397488242C0F0E080039A5F
:103DE000A4EB050E92074FEA9E0000F103810F2F0E
:103DF00000F2B180002D00F0058107F140020DEBCB
:103E0000020C019A0CF8200C0CF8102C04980130CC
:103E10000490E7E07A285DD84B280ED8472859D877
:103E200029282DD8252852D054D820287AD02338B4
:103E3000D0F1000B4BEB000B74E04C382E2849D826
:103E4000DFE800F070484848484848484848484833
:103E50004B484848484848484859484B4B59595995
:103E6000704B6D487048184B184848827F4B484843
:103E70004B487F0000204FF0000B4FF0040A38E061
:103E80002A380122C0B202FA00F010EA0E0F49D11E
:103E900010F0625C2FD110EA020B43D06046013C67
:103EA0005444B4FBFAF40AFB04F4002D61D0A3EBF4
:103EB000050CA444B4453FF66BAF002868D1042B31
:103EC00047D158F8043B2360043404232AE0019AC4
:103ED000013A01924FF0000B24E011F8010C6C281C
:103EE00034D111F8023C00206C2B8346C5D14FF031
:103EF000080A5346D3E708F10708073428F00708F3
:103F000024F00704F8E802AB35B106982044B0422B
:103F10003FF63EAFC4E900AB08344FF0000B4FF062
:103F2000080A534611F8010F002878D0BBF1000FA2
:103F30007FF470AF2528F5D1019B4FF0010B0133C1
:103F400001934FF0040AECE7584694E700208346BB
:103F5000A5E7082B02D06FF015001BE708F1070852
:103F600028F00708F8E80223C4E9002308340823EE
:103F7000D8E768B9042B02D108F10408A4E7082B9C
:103F8000E9D108F1070828F0070808F10808EDE76B
:103F9000059A013A059258F8042B009210E7039A0B
:103FA000900720D5A4EB050E4FF0010C4FEA9E00C0
:103FB000BEF5007FCFD20F2FCDD8F5B107F140026B
:103FC000C0B20DEB020E019A0EF8200C0EF8102C68
:103FD000BCF1000F3FF41AAF60F07F0009F1010956
:103FE0000EF8200C0137C5F1080204344FF6DA7ED2
:103FF000069297E74FF0000CDAE7BCF1000F01D012
:104000000136EFE7029802360028EBD10098CDE99F
:104010000631FCF7A3FC0644DDE90631E2E7631B49
:10402000B3F5806F97D23DB9A6F10804E018B1E668
:104030000CDF0308686004089B08029A28602B7054
:104040009DF81030C2B1EB7085F80290B9F1000F05
:1040500005D008A80022C5F1010C97420ED1C5F188
:1040600001030DF120084FF0000A0DF1300B019310
:10407000574512D1601B8DE66B70E5E710F8013BE8
:10408000190608D50CEB040E03F07F03B6453FF686
:104090007FAE04F8013B0132DFE7B9F1000F03D036
:1040A00098F90020002A17DB029BD3B11AF80B20E5
:1040B00004F8012B0022019B18191044B0423FF66E
:1040C00067AE98F80000009904F8010B20460392AF
:1040D00039F0CDFC039A14440AF1010A08F10108F1
:1040E000C6E798F8002055F822300093029B00980C
:1040F00045F82230FCF732FC421CDCE76FF00D0083
:1041000048E600BF2DE9F04F97B00446894600AF5E
:1041100090F802A0D7F880B03B62CBF3C003FA62FC
:10412000BB6141B9457800780AEB800020444D45D9
:1041300017D8A0EB0409E378FB61BAF1000F02D0B5
:104140001BF0010F16D1FB6953BBFB6A1BB13A6A26
:104150004946204698474D4628465C37BD46BDE84F
:10416000F08F461C09F101093046FCF7F7FB0130DE
:104170003044DCE72378626899007A62FA6A7961F0
:1041800004EB8301002A40F004814D460E4601EB0A
:104190000A094FF000084E4550D101EB0A0610E025
:1041A0001BF0020FD1D023789A0004EB83017A61CF
:1041B00062687A62FA6A002A7BD14D4601EB0A06F0
:1041C00090461BF0050F0CBF02230123FB62FB6925
:1041D00006EB430A0BF00203BB625645BCD016F84F
:1041E000021B16F8013C54F823909B4B994502D3CF
:1041F0009A4B99453AD3BB69002B44D0786A27F093
:10420000BDFB00283FD09648036813F0060F13D07B
:10421000E9468AB06A46934B53617B6AC2E906312C
:104220004FF400731384904B42F8103F00234FF477
:10423000125100F0D9FFCD46023DCEE716F8013B02
:10424000F96254F82300FCF789FBD7F88430013079
:10425000F96A4BB1D7F8883098453EBFD7F884301B
:1042600023F8180008F10108054494E7BB6923B15D
:10427000786A27F083FB0028C5D11BF0010F05D118
:10428000FB6AED1AA9E7BB6A002BA6D04846FCF7EB
:1042900065FBD7F8843053B1D7F8883098453FBFD5
:1042A000431CD7F8842022F8183008F1010805448F
:1042B00093E7BAF1000F72D01BF0040672D0D0461B
:1042C000002607F1480052463B61B96239F0CFFB46
:1042D000B96A3B6901EB0A02F969BA62FA695200EC
:1042E000FA60BA6A02EB41023A610BF00202BA606C
:1042F0003A69B96A8A4257D11BF0020F62780CBF43
:104300004FEA580100217A621BF0010F3244D2B209
:1043100040F09F801BF0040F14BF40460020BB619B
:104320006270A0702046E1703A6A7969FB6A98472A
:10433000051EFFF611AFBB6941463A6A07F1480016
:1043400023707B6A84F802A06370FB69E370FB6AE8
:104350009847B0F10008C0F2BB807B69A9EB0A0165
:104360003A6AC91AFB68C91AD7E90A0398470028AC
:10437000C0F2B080A8444FF0000B07F1380A08EBF8
:104380000005B34572D300213A6AFB6A0846984794
:10439000E2E656464FF0000807F1380093E756462C
:1043A000D04697E7B04695E7BA6A12F8021B12F8B2
:1043B000015CBA6254F82500274A904202D3274A8A
:1043C00090421ED3BA6932B1786A7B6027F0D6FA80
:1043D0007B6800288CD1BA6802BB08F1280207F17B
:1043E000300C08F1010008F10208944407F158026A
:1043F0005FFA88F852FA80F00CF8101C00F8105C94
:1044000076E7BA693AB1786A7B6027F0B7FA7B68D9
:1044100000287FF46DAF1BF0010F09D006F12802D0
:1044200007F13000711C161806F8205CCEB25FE769
:104430001BF0040F3FF45CAF08F1280207F13000D5
:1044400008F1010102EB000808F8105C5FFA81F83E
:104450004EE7002063E700BF0CDF03086860040834
:1044600080160120DB260408040000011BF80A3036
:1044700054F8239087F83730D7F884302BB3D7F827
:1044800088309B4521D2D7F8843033F81B803A6AB4
:10449000012107F13700FB6A984700281ADB054421
:1044A000B8F1000F06D14846FCF758FA00F10108B0
:1044B0001FFA88F83A6A41464846FB6A984700283E
:1044C00008DB05440BF1010B5BE74FF00008DEE76A
:1044D000454641E605463FE630B50446EFF3118513
:1044E000102383F31288BFF36F8F044B0FCB84E844
:1044F0000F0085F31188BFF36F8F30BD489E0120F8
:1045000001281FB50C4605D004281DD06FF01500FA
:1045100004B010BD39F065F842F210720023FCF7C8
:10452000F1F9104B5A43C4E90001A2606846FFF755
:10453000D3FF6946204627F046FA18B90A4B0FCB3D
:1045400084E80F000020E3E739F04BF842F21072E4
:104550000023FCF7D7F9034B5A43C4E90001A260DA
:10456000F0E700BFA0860100B0EA030801287FB58C
:104570000D462DD18A68184B9A4229D839F031F866
:1045800042F2107200236C46FCF7BCF94042134B18
:1045900061EB41015343CDE900012046029300F055
:1045A00037FA2946204627F00EFAEFF3118610233A
:1045B00083F31288BFF36F8F094D94E80F0085E8ED
:1045C0000F0086F31188BFF36F8F002004B070BD19
:1045D0006FF01500FAE700BFFFC99A3B6079FEFF54
:1045E000489E0120014B1860704700BF040A01205B
:1045F00080B505460E461746984625F02BFADFF89B
:104600002090034639F078FC0446424649F80030D1
:1046100039463046A84754F8090004F06BFC00BF47
:1046200008000000044B162200B539F065FC1A5052
:104630004FF0FF305DF804FB0C0000000A2800B5C5
:1046400008D90A4B092239F057FC1A504FF0FF30B5
:104650005DF804FB3023BFF35B8F5843044B1B58BA
:10466000BFF35B8F002BECD00020F1E70C000000C3
:10467000100A012030231149434308330B4430B55D
:10468000BFF35B8F1A68BFF35B8FB2B1541EBFF3E9
:104690005B8F53E8005F954204D143E8004CBCF1C6
:1046A000000FF6D1BFF35B8FEAD1012A05D1302389
:1046B000584300230A180B50536030BD080A0120EC
:1046C00038B504461546FFF7B9FF00280BDB094A49
:1046D00059B1302303FB04235B688B4205D0064BA2
:1046E00039F00AFC1D50002038BD30235C431059BE
:1046F000FAE700BF080A01200C0000002DE9F04194
:10470000174E90461F46002435463368984202D122
:10471000736899420AD0013430360B2CF5D1114B15
:1047200017224FF0FF3439F0E7FB1A502046FFF70D
:1047300085FF002812DBB8F1000F05D0302101FB06
:1047400004510C31C8F8001017B90120BDE8F08100
:10475000302303FB045520353D60F6E70020F5E7E4
:10476000080A01200C00000038B504461546FFF782
:1047700065FF00280DDB3023074A6343D0184068EB
:10478000086015B10C3313442B6030235C4310597F
:1047900038BD0020FCE700BF080A01204FF0FF33BE
:1047A0004FF0FF321C4870B527F05FF900251B4B16
:1047B000BFF35B8F1A68BFF35B8F7AB1013530337B
:1047C0000B2DF5D1164B17224FF0FF3539F094FB26
:1047D0001A50114827F04BF9284670BD3024BFF31A
:1047E0005B8F6C4353E8000F013043E80001002960
:1047F000F8D10C4EBFF35B8F331932515A609A6275
:1048000004F10C00304438F033FB04F12000304454
:1048100038F01AFDDDE700BF00180120100A012062
:104820000C000000080A01202DE9F0413024164652
:104830000F4A4443101911514660C362B6B1F36880
:10484000A3B10C4F0C3439F057FB054650F80780E4
:104850001319304640F2051227F0F6F8B8F15F0F51
:1048600004D0EB595F2B08BF45F80780BDE8F08105
:10487000080A01200C000000F8B50546FFF7DEFE2F
:10488000002824DB3024134F4FF0FF324FF0FF336A
:104890006C4304F10C063E44304627F0E6F83A1922
:1048A00053689B688BB1D26A385912F4404F0AD0D2
:1048B000294698470446304627F0D9F82846FFF79E
:1048C000D9FE2046F8BD9847F4E71C46F3E74FF0C1
:1048D000FF34F6E7080A0120044608B5EFF3118318
:1048E000102383F31288BFF36F8F33F02CFC204624
:1048F00004F0EEFA024827F098F829F07AFBFCE77A
:104900008F2704082DE9F84340F26C734469056968
:104910000646E117E41805F10105C76841F10001F9
:10492000022D07F1FF378CBF00230123E41A61F148
:10493000000100294EDA6FF4C7704FF4C8720023EB
:10494000201861F10001FBF78DFF254B4FF03C0E65
:10495000022D03FB004402468CBF6FF002000920C9
:10496000D6E90083B66805444FEAE37C994699206E
:10497000634645430520C6FB0E93A9FB0EC60235D0
:104980000EFB0366A30840F26D1E1CEB080C0EFB29
:10499000043346EBE8763B446427B4FBF7F4B5FBFD
:1049A000F0F51B1B0F4C2B44A2FB042004FB010160
:1049B00098180D4A41F1000380180C4A63F1000376
:1049C000A0FB020102FB031110EB0C0041EB0601FE
:1049D000BDE8F8834FF4C87200232046B3E700BF58
:1049E00070FEFFFFB13A02009405F5FF805101000F
:1049F00010B5FFF787FF002402460B46034939F044
:104A00007BFA44501046194610BD00BF0C00000050
:104A10001F4B70B582689A4215DD0133D0E900164C
:104A200092FBF3F301294FEAE37476F100051CDAF7
:104A3000C91844EB0604C0E90014164901FB03231E
:104A40008360012070BD002AFBDA9B1A124ED0E968
:104A50000041B3FBF6F3002910DA01F100459C4256
:104A600075F100050ADA0020ECE7CD439D426FF0B6
:104A70000045A5EB0605A541DADAF4E7E41A06FBE2
:104A8000032261F100018260C0E90041D9E700BF63
:104A9000FFC99A3B003665C400CA9A3B034A00200E
:104AA000536823F002035360704700BF002004E006
:104AB000064B1A6842F400721A601A6842F4807257
:104AC0001A60034B034A1A60704700BF003C024063
:104AD000D81501200024F4002DE9F04704460746CC
:104AE0004FF00109DFF8508014B93846BDE8F0876F
:104AF00094FAA4F5B5FA85F509FA05F32E0108EB49
:104B000005156FEA030A24EA03042B7B002BEBD084
:104B100058F806301B694BB946440422284607EA78
:104B20000A077368196827F0B5FCDDE7284698473F
:104B30000028D9D1F0E700BF08E9030830B500220A
:104B400089B00F490F4838F094FD0022002300245B
:104B50000D4D0E4928460094CDE906230E234FF44F
:104B60004072CDE90334CDE90144094B24F010FC37
:104B70000849284624F02EFB204609B030BD00BF6E
:104B8000994B000838A30120589E0120C00A042038
:104B9000E14E0008D3270408014824F035B800BFCF
:104BA0004C1901202DE9F047804620480F4627F098
:104BB00041FC0646002832D000252846BDE8F08793
:104BC000237B83B12368DB680BB120469847636879
:104BD00083F8069023681B69CBB9636804222046DA
:104BE000196827F057FC013610345445E8D3B8F162
:104BF000000FE2D0002DDFD02846FFF76DFF0546FD
:104C0000002FF7D00021642038F026FCF2E7204680
:104C100098470028E1D009FA06F31D43E3E7044C66
:104C20000546DFF810A04FF00109DEE7ECF60120A1
:104C300008E9030818E9030808B5034608462BB13C
:104C4000044A136000F072FD002008BD6FF01500EB
:104C5000FBE700BF180C012010B5044C237813B9F2
:104C6000034823F0D1FF0123237010BD5495022087
:104C70004C19012010B504460B4827F0DBFB5CB152
:104C80000A4BBFF35B8F53E8001F013943E8001262
:104C9000002AF8D1BFF35B8F054838F0F6FC0548D1
:104CA000BDE8104023F0B0BFE4F60120E8F6012093
:104CB00038A301204C1901200020064BBFF35B8F65
:104CC000014653E8000F43E80012002AF9D1BFF370
:104CD0005B8F7047E4F6012070B5FFF7EDFF084CDD
:104CE0000546084EB44200D370BD63685B792BB1B2
:104CF00023685B6813B12946204698471034F1E7D2
:104D000008E9030818E9030810B5044C04492046D3
:104D100026F0B4FF034B1C6010BD00BF3C16012001
:104D2000D4F30308DCF6012000230E4A4FF47A7115
:104D30000D4810B513700D4A13600D4A1360FFF74C
:104D40007BFFFFF7E1FF00F079F90A4B0A491846AB
:104D50008B4200D310BD1A1A5C6810331211013255
:104D60002271F5E7559502204FC40208E4F60120B0
:104D7000E8F6012008E9030818E9030801460022C3
:104D80000023014826F09BBF3C160120014827F074
:104D900034B800BF3C160120024B0146186827F0CA
:104DA00080B800BFDCF60120014827F0B5B800BF8D
:104DB0003C160120334B2DE9F041187800285FD0D4
:104DC000FFF7E4FF0446002856D12F4B2F4C1B68F9
:104DD000002B12DD38F005FC0A220023FBF792FDC0
:104DE000D4E90032C01A40F2E93361EB0201984283
:104DF00071F1000101D3FFF76FFFD4E9003213F521
:104E00007A7342F10002C4E90032BDE8F041FFF7D5
:104E1000CBBF6B685B793BB121784B0717D52B680B
:104E2000214628461B68984710354545F1D3204652
:104E3000FFF7B2FF164BBFF35B8F53E8001F01393A
:104E400043E80012002AF8D1BFF35B8FBDE7268844
:104E50002046C1F3C20700F0A7FAC6F38216024645
:104E6000002EDCD00028DADB01233946284600F08A
:104E700095F9B042D8D3D2E7064DDFF81C80D4E7CD
:104E8000BDE8F08154950220E4F6012030A3012012
:104E9000E8F6012008E9030818E9030870B50D4D8C
:104EA000297861B90C4C01200C4EFFF77BFEB4420F
:104EB00006D3FFF77FFF0028FBD101232B7070BDC5
:104EC00063685B791BB1236820469B689847103460
:104ED000EDE700BF5595022008E9030818E903082B
:104EE00000212DE9F0470846FFF75CFE044658B361
:104EF0004FF4FA784FF000091C4B38F0FDFF1C4AC4
:104F00001B58136033B11B4B1B68092B02DD1A4879
:104F100023F07AFE0025194FDFF85CA044B120464B
:104F2000FFF7DAFD044618B94FF0FF384FF0FF39AC
:104F3000FFF740FF064628B9B5B942464B465046F2
:104F400023F09EFE3546E9E74FF0FF384FF0FF397A
:104F5000D2E72B689B691BB100222846114698476F
:104F60001035BD42F5D3E8E7054DFAE7080000002B
:104F7000E0F60120E8F601204C19012018E90308A9
:104F800008E9030813B5184827F054FA174B1B78A3
:104F900073B1EFF31184102383F31288BFF36F8F83
:104FA000FFF708FF84F31188BFF36F8F02B010BDC5
:104FB0000F4B1B68002BF9D050B9002200230D487D
:104FC000CDE9002342F21072002325F0B5F8EDE799
:104FD0000928EBD1074838F058FB074802B0BDE874
:104FE000104023F011BE00BFE8F6012055950220C5
:104FF000E0F6012038A301204C190120064B10B522
:1050000004461B6898472146A060044826F0D6FE57
:10501000BDE81040FFF7B6BF180C01203C16012078
:10502000044A054B9B1AB1EBD30F34BF52F8310041
:1050300000207047C0E7030808E903080B48002177
:105040000B4B1B1A043030B5DB080A4C994200D1D7
:1050500030BD10F831200131256802F0070225F03B
:1050600007052A4344F8042BF0E700BFC0E7030814
:1050700008E9030880160120F8B50B4F06460B4DD2
:105080000024ED1BED08AC4203D14FF0FF34204665
:10509000F8BD57F8340020B13146FBF74DFC00282D
:1050A000F5D00134EFE700BFC0E7030808E90308C3
:1050B00000282DE9F047884615461F461DDADFF81F
:1050C00098904FF0000A254E5446A6EB0906360983
:1050D000B24509F1100902D12046BDE8F08759F820
:1050E0000C0C3B462A46414600790AF1010AFFF7BB
:1050F000DFFF844238BF0446EAE7194B194AD21A47
:10510000B5EBD20F25D203EBC5031C79BC4228BFF7
:105110003C46C0B20722144E002100EB400056F876
:105120002530824023EA020304F007028240134341
:10513000032223FA02F0033200F00700814238BF55
:1051400001461E2AF5D123F007030B4346F825300C
:10515000C2E70024DDE700BF08E9030818E90308F7
:10516000C0E7030808E9030880160120F8B5094DD7
:105170000646094B0F460024ED1AED08AC4200D359
:10518000F8BD22B201343B4600213046A4B227F0DC
:1051900079F9F3E708E90308C0E7030870B141684B
:1051A000097973B1002A17DBCBB20C4903EB430337
:1051B00051F82200D84000F0070070474FF0FF314F
:1051C000EFE707490748401AB2EBD00F3ABF01EBAF
:1051D000C2010879184670470420704780160120E4
:1051E000C0E7030808E903082DE9F04F8FB0C1F3C9
:1051F0004A280D46914604AF0C0DB8607B60B8F1AB
:10520000000F67D0002607F114034FF0040B4FF096
:105210000A0AC7F80C8032467E624846C7E907662C
:10522000019307F11C03CDF808B0CDF800A0F96890
:10523000FEF768FFB0F5006F034620D32A480368E5
:1052400013F0060F17D06C468AB0D9F8041004ABDF
:10525000264D1A46C3E9055140F2FF71D9614FF45A
:1052600000711984224B42F8103F4FF4125133461B
:10527000FFF7BAFFA5462C37BD46BDE8F08FC0F357
:105280000A0804F117003B60184468F3532520F026
:1052900007008008FFF772FD044690B13B6800F1FB
:1052A0001001144A4846F961C7E9083607F11403AA
:1052B000CDF808B0CDE900A307F11C03F968FEF7AB
:1052C00021FF68F353257B68B96820462A4627F0FA
:1052D00015F9D0E704F1170020F007008008FFF768
:1052E0004DFD0446EDE700BFA8160120E82704089D
:1052F00004000001CFC402082DE9F04F87B0044636
:10530000934698460391DDE91279DDE9105ADFB141
:105310003B46524610210020CDF80090CDF8149065
:10532000FEF71EFDB0F5006F06460ED31C4803685D
:1053300013F0060F30D040F2FF731A4A022107B073
:10534000BDE8F04F27F033B93E4604F0070405F1FD
:1053500017000BF0070BE400304444EA8B1420F0F4
:10536000070044EA4624800844EA0554FFF706FD96
:10537000054640B13FB13B46524631461030CDF86C
:105380000090FEF7EDFC434622460399284607B0FD
:10539000BDE8F04F27F0B2B807B0BDE8F08F00BF0E
:1053A000A816012027280408406820B1034BC01A22
:1053B00040F38F0070474FF0FF3070478016012098
:1053C0000EB403B503AB0146054853F8042B019313
:1053D00004F036F802B05DF804EB03B0704700BF8C
:1053E00011C60208CA0605D48B064CBF0249034900
:1053F000FFF7E6BF704700BF355504085F28040873
:105400002DE9F04F89B09B4604460D46149B90460B
:105410009DF84CA00693159B179E0593169B04932D
:10542000BAF1000F00F09D8006F4807306F00209C7
:10543000079327F025F8024600283ED091492046E0
:10544000FFF7BEFF0746B9F1000F08D016F0440F72
:1054500035D12A468C492046FFF7B2FF074406F0B3
:10546000010353B1894B2046894953F82A20894BBF
:10547000002A08BF1A46FFF7A3FF06F48073002B2B
:1054800049D006F00803002B63D1B8F1000F66D0B5
:10549000424681492046FFF793FF0546069B3D445F
:1054A000002B6DD1049B002B73D1F30700F1E48036
:1054B00031462046FFF796FFD8E00746C3E7774B13
:1054C00018680028CAD0764B4FF47A794FF03C0C1C
:1054D0001B68B5FBF3F5B5FBF0F100FB11554FF47C
:1054E000616309FB05F5B1FBF3F2B5FBF0FE03FBCD
:1054F000121100FB1E55B1FBFCF309FB05F50CFB7B
:105500001311B5FBF0F5009120466649CDE901E5A0
:10551000FFF756FFA2E706F00803EBB1624B204607
:10552000624953F82A20FFF74BFF0546B8F1000FF8
:1055300005D0424658492046FFF742FF0544BBF1DB
:10554000000FABD05A465A492046FFF739FF0544B1
:10555000A4E74FF0000BE1E706F00805E6E7454653
:105560009CE7BBF1010F069B06D1002B64D1049B85
:10557000002B7BD000250CE0002BF8D04D485CE0E0
:105580004D48069B22464D4926F0C7F9049B002B47
:1055900068D0DFF82C81DFF82C91049F4FF0000BCE
:1055A00031462046102F28BF1027FFF71BFF5D450F
:1055B00045DC059B4FF0010B494620461A78FFF762
:1055C000FFFE1BF0070F03D141462046FFF7F8FE10
:1055D0005F453BD9059B4946204613F80B20FFF752
:1055E000EFFE0BF1010BBBF1100FEAD14FF0000BF6
:1055F00035492046FFF7E4FE5A46059B20469A5C53
:10560000A2F120015F29314928BF2E22FFF7D8FEE1
:105610000BF1010BBBF1100F1DD01BF0070F03D1D5
:1056200041462046FFF7CCFE5F455A46E5D8414645
:105630002046FFF7C5FEEBE71F485546A1E7414668
:1056400020460BF1010BFFF7BBFEB0E720492046D7
:10565000FFF7B6FEC5E7059B3B440593049BDB1BA8
:1056600004939AD1BAF1000F7FF41FAF204609B01E
:10567000BDE8F04F26F0BFBF064A20460449FFF7B9
:105680009FFE15E7F636040867280408E8F30308C8
:10569000AF2F0408622804088C280408F4F60120BF
:1056A000F0F6012070280408FCF303089028040891
:1056B0009628040847C6020811C60208419400084B
:1056C0008A5704089B280408A5280408DA36040829
:1056D000A128040842F20F73114A8B4273B50446A5
:1056E00028BF0B4605680521684625F00BF863685E
:1056F00006460B2228465B680A4926F06EFF63685F
:105700003246694628465B6826F067FF63681B22BD
:1057100005495B68284626F060FF02B070BD00BFF7
:10572000CA480408C3280408A72804080021012344
:10573000064A904206D8064A01B901231360054B78
:1057400018607047400801215B00F2E740420F00FB
:10575000F0F60120F4F60120014B036003207047AE
:1057600010F40308104B70B51C680D46B4B10F4B14
:10577000196800238B4202DB6FF0010070BD2246E6
:1057800012F8106B864202D001331446F2E7E0684B
:1057900037F07CFA28B100202C60EFE76FF00C00A6
:1057A000ECE76FF01200E9E71C0C012040F403085D
:1057B0000D4B2DE9F0411C6805460E4617467CB19D
:1057C00000F058F9636820463246D3F81080294625
:1057D0003B46C047044600F057F92046BDE8F0813B
:1057E0006FF00104F9E700BFF8F601200023036021
:1057F000044B5A6812B9C3E9000070471060586042
:10580000704700BFFCF60120014B1860704700BFD5
:10581000F8F6012030B5002385B005460190CDE9AA
:10582000023300F027F9094B1C6844B9284600F000
:10583000C1F8044600F028F9204605B030BD636881
:10584000204601A91B6898472468EEE7FCF6012072
:10585000024B0022C3E90022704700BFFCF6012082
:10586000024B0022C3E90022FFF7F2BF04F7012038
:105870002DE9F74307460C4609B100230B601F4D85
:105880000026DFF87C904D450FD31E4B1D6885B375
:1058900055F8188C01AA3846183D414626F064FF99
:1058A00010B3D6B914BB2E461EE0D5F8008001AA6D
:1058B0003846414626F058FF50B116B954B92E4625
:1058C00006E000223168404626F04EFF0028F5D160
:1058D0001835D8E7019B2360F1E700223168404684
:1058E00026F042FF0028DDD1AD69D0E7019B23609F
:1058F000D9E7304603B0BDE8F08300BF18E90308DC
:1059000018E9030804F701202DE9F04784B00446A4
:105910000D46164602AF9846D7F828907860B9F140
:10592000000F07D0D9F8001051BBD9F804A0BAF184
:10593000000F2CD1391D2046FFF79AFF28B3D0F86D
:105940000C904346324629467868C8470346E0B182
:1059500015480268520718D06D468AB002AAD36172
:105960004FF4007311491384114BC2E9051442F836
:10597000103F00234FF41151FFF736FCAD4604E011
:105980003A1D26F0F1FE0028CFD1002007E0D9F81B
:10599000083032462946009343467868D047083796
:1059A000BD46BDE8F08700BFE81601204D29040878
:1059B000040000012DE9F04780464FF00047002623
:1059C000DFF8A490DFF8A4A03D46294C4C450DD348
:1059D000DAF80040002C42D0183CB8F1000F25D175
:1059E00022695ABBA469F5E72F46EDE7B8F1000F2D
:1059F00003D122694AB91834E8E7002241462068F9
:105A000026F0B2FE0028F4D1F5E76368BB4205DD5D
:105A1000AF4209D09D42A8BF1D46ECE7EBD19047AD
:105A2000002E08BF0646E6E71D46E4E70022414691
:105A3000206826F099FE0028D2D1D3E76368BB42E4
:105A400005DDBD4209D09D42A8BF1D46CAE7C9D1A8
:105A50009047002E08BF0646C4E71D46C2E7AF4286
:105A6000C2D13046BDE8F08718E9030804F70120E9
:105A700018E903084FF0FF324FF0FF33014822F0DE
:105A8000C9BF00BFDC180120014823F03BB800BFAC
:105A9000DC180120F8B505460F46174C174EB442E6
:105AA0000CD3174EFFF7E6FF346874B12868183C32
:105AB0002168FAF741FFC8B1A469F6E721682868B0
:105AC000FAF73AFFA8B11834E9E700226F6005F150
:105AD0001803AA61726832B9C6E900330024FFF7DF
